:020000040800F2
:10000000001800203D1400081D1400081F140008EB
:1000100000000000000000000000000000000000E0
:100020000000000000000000000000002114000893
:100030000000000000000000231400082514000840
:100040008D140008000000008D1400088D140008B5
:100050008D1400088D1400088D1400088D140008FC
:10006000000000008D1400088D1400088D14000895
:100070008D1400088D1400088D1400080000000085
:100080008D14000800000000000000008D1400081E
:10009000000000008D1400088D1400088D14000865
:1000A000000000008D140008000000008D140008FE
:1000B0008D14000800000000000000000000000097
:1000C00010B5064C2378002B07D1054B002B02D02E
:1000D000044800E000BF0123237010BD2800002069
:1000E0000000000098220008044B10B5002B03D03C
:1000F0000349044800E000BF10BDC04600000000F6
:100100002C00002098220008002243088B4274D360
:1001100003098B425FD3030A8B4244D3030B8B4208
:1001200028D3030C8B420DD3FF22090212BA030C11
:100130008B4202D31212090265D0030B8B4219D3F2
:1001400000E0090AC30B8B4201D3CB03C01A524112
:10015000830B8B4201D38B03C01A5241430B8B425A
:1001600001D34B03C01A5241030B8B4201D30B0343
:10017000C01A5241C30A8B4201D3CB02C01A52416A
:10018000830A8B4201D38B02C01A5241430A8B422D
:1001900001D34B02C01A5241030A8B4201D30B0216
:1001A000C01A5241CDD2C3098B4201D3CB01C01A30
:1001B000524183098B4201D38B01C01A524143093A
:1001C0008B4201D34B01C01A524103098B4201D328
:1001D0000B01C01A5241C3088B4201D3CB00C01A95
:1001E000524183088B4201D38B00C01A524143080D
:1001F0008B4201D34B00C01A5241411A00D2014632
:10020000524110467047FFE701B5002000F006F8A4
:1002100002BDC0460029F7D076E770477047C04658
:100220009E2110B5C905041C00F0DEFC002803D196
:10023000201C00F0F9FB10BD9E21201CC90500F018
:1002400045FA00F0F1FB80231B069C466044F2E770
:10025000F0B54F464646D6464502C0B547000C1C91
:100260006D0A3F0EC60F002F00D170E0FF2F00D1A6
:1002700075E0EB008025ED041D43002399469A4666
:100280007F3F6002430A984663001B0EE40F002B79
:100290004ED0FF2B46D04246D0008022D2040243EB
:1002A000904600227F3B3100FF1A4B466140C9B2A5
:1002B00013430F2B00D9B5E06E489B00C3589F46EF
:1002C000002398462600454692465346022B00D10D
:1002D00089E0032B00D19EE0012B18D03B007F3337
:1002E000002B69DD6A0704D00F222A40042A00D0BF
:1002F00004352A0103D5604B1D403B008033FE2BA3
:1003000000DD70E0AD016D0AD8B202E00E00002001
:100310000025C0052843F6073043E0BCBA46B14685
:10032000A846F0BD4346002B3FD10222FF3F03E029
:100330004346002B2DD1012231004B466140C9B20A
:1003400013430F2B34D84D489B00C3589F46002DB4
:1003500013D104239946033B00279A4691E7002DC9
:1003600005D108239946063BFF279A4689E70C23C7
:100370009946093BFF279A4683E7280000F03EFC98
:100380007627431F9D4000237F4299469A463F1A95
:1003900077E7404600F032FC4246431F9A407623FE
:1003A0005B4290461B1A00227DE7FF2303227AE777
:1003B0000E00FF200025ACE70120C01A1B28A6DC98
:1003C0009E372A00BD40C2406B1E9D4115436B07FE
:1003D00004D00F232B40042B00D004356B0144D5EF
:1003E0000120002595E7FF20002592E780250026C3
:1003F000FF20ED038DE7002398468020C0030542CF
:1004000009D04346034206D1454605436D02260006
:10041000FF206D0A7DE78020C00305436D02FF20A9
:100420006D0A76E742466B015001834219D21B22C6
:100430000025013F01261C006D005B00002C01DB44
:10044000984201D81B1A3543013A002AF3D15A1EAB
:1004500093411D433B007F330E00002B00DD41E73D
:10046000AAE71A2201251B1AE4E7AD0100206D0A54
:100470004FE7C046B0220008FFFFFFF7F022000858
:10048000F0B54F464646D64644024500C0B5640A1C
:100490000F1C2D0EC60F002D00D18DE0FF2D00D1B9
:1004A00092E00023802099469A46E400C004044369
:1004B0007F3D7802430A98467B001B0EFF0F002BFE
:1004C00000D170E0FF2B00D186E04246D0008022B0
:1004D0007F3BED180023D204024390469C46310036
:1004E0004B467940681C0F2B1CD8764A9B00D3588A
:1004F0009F4639004446E2465346022B0FD0032B59
:1005000000D1D7E0012B37D100200024C0052043C3
:10051000C9070843E0BCBA46B146A846F0BDFF2073
:100520000024F3E7260C2404220C44462404240C63
:10053000434627001B0C574374435A435E4312192A
:100540003B0C9B189C4203D980225202944666447D
:100550003F041A043F0CD2199401671EBC411B0CC6
:10056000920E9B1914439B011C431B0100D49BE07A
:10057000012362081C40144302007F32002A64DD1C
:10058000630704D00F232340042B00D0043423013D
:1005900003D502004C4B80321C40FE2ABFDCA40174
:1005A000640AD0B2B2E74346002B3DD14A4601333C
:1005B0001A4391469C4692E7002C29D10423994680
:1005C000033B00259A4674E7002C1BD1082399466B
:1005D000063BFF259A466CE74346FF35002B0BD1BF
:1005E00002234A461A4391469C4678E75346310017
:1005F000022B00D083E792E703234A461A43914631
:100600009C466CE70C239946093BFF259A4650E728
:10061000200000F0F3FA7625431F9C4000236D4232
:1006200099469A462D1A44E7404600F0E7FA4246BA
:10063000431F9A4000232D1A90469C46763D4EE774
:1006400080240021FF20E40360E701239B1A1B2B79
:1006500000DD59E722009E30DA4084401300621E1C
:1006600094411C43630704D00F232340042B00D084
:10067000043463011AD50120002447E78020C00319
:10068000044209D04346034206D14446044364026F
:100690003900FF20640A39E78020C0030443640264
:1006A0003100FF20640A31E7280065E7A40100203B
:1006B000640A2BE78020C00304436402FF20640A1D
:1006C00024E7C04630230008FFFFFFF7F8B5CE4609
:1006D000474643025B0A4E02DA009446720A91468C
:1006E00045004A0080B52D0E1F00C40F120EC90F21
:1006F000B609FF2A5BD0012041408C4239D0A81AAC
:1007000000285ADD002A6AD0FF2D00D1D9E08022CE
:10071000D20416431B2800DCE9E001206346181AC6
:10072000430100D4B4E080018709380000F066FA84
:1007300005388740854200DCCCE02D1AB5483840AA
:10074000430704D00F230340042B00D0043043019F
:1007500000D4A0E06A1CFE2D00D18DE08001470A84
:10076000D2B2D0053843E4072043C0BCB946B046F6
:10077000F8BDA81A8046002845DD002A70D0FF2D5C
:1007800000D19EE08023DB041E4343461B2B00DC8C
:10079000D2E00120604443017AD50135FF2D6BD0B2
:1007A00001239D4A0340400810401843C8E7002E2B
:1007B00020D08C4223D02800FF38002839D0571B86
:1007C000002D00D09DE06346002B00D1DBE07B1EB6
:1007D000012F00D10DE1FF2F71D01F0098E0002EF6
:1007E00000D1A7E0421E012800D1E6E0FF2868D032
:1007F00010008FE701204140A14200D07FE7FF2099
:1008000040428046A8444046002838D0511B002D65
:1008100000D1AEE0FF2A00D1DFE080236046DB0498
:10082000184384461B2900DCD9E0012015008019FB
:10083000B1E7FE206A1C104271D1002D00D0A6E065
:100840006346002B00D1D9E00022002E00D188E7BA
:10085000981B430100D4E1E063460C00F01A6FE7F7
:10086000002E00D1B7E00200013A012800D19CE03F
:10087000FF2826D0904688E7FF22002771E7FE2058
:100880006A1C104264D0FF2AF6D015006644700836
:10089000430700D056E7C308FF2D12D05B025F0A62
:1008A000EAB25EE76246002A00D196E0002E08D048
:1008B0008022D203134204D04846104201D10C00DA
:1008C0004B46002BD8D08027FF031F437F02FF2217
:1008D0007F0A46E720233A00451B38000135EA40ED
:1008E0005D1BA840431E98410025104328E72023A4
:1008F0001B1A32009E40C2403000431E98411043F4
:100900000CE7FF2ADBD080236046DB0418438446D3
:100910001B2F56DD01200C001500301A00E763463E
:100920009F1B7B013DD4002F00D0FEE60024002257
:10093000002716E70500AFE7320043464146DA409C
:1009400020235B1A9E403000431E9841104321E74C
:10095000002DA7D16346002B59D00022002E00D1D4
:10096000FFE630006044430192D52A4B0135184020
:100970008EE76346002B47D04B1E012915D0FF2977
:100980002BD019004EE70C004B463D0084E7624631
:10099000002A8BD1002E92D180270024FF22FF0352
:1009A000DFE663460C00F71ABFE63000604401251D
:1009B000430100D46CE70225F2E663460125981B4B
:1009C000AEE6202364466046FC40DF1BB840431E71
:1009D000984120439FE705005EE74B4671E72023DF
:1009E00065466046CD40591A8840431E98412843C9
:1009F0001CE763460C000125F01A91E6002E95D005
:100A00000C004F460022ACE64B460D0044E74F4633
:100A10000022A6E6FFFFFFFBFFFFFF7D002800D0BE
:100A200036E7002400279CE641024200C30F490A32
:100A30000020120E7E2A03DD9D2A02DD094A981845
:100A40007047802000040143952A07DC9620821A13
:100A5000D1404842002BF3D10800F1E7963A91408B
:100A6000F7E7C046FFFFFF7FF8B5002813D0C31794
:100A7000C6185E40C40F300000F0C0F89E23050089
:100A80001B1A962B0FDC082801DD083DAE407602CC
:100A9000760AD8B202E0002400200026C0053043C8
:100AA000E4072043F8BD992B0CDD05223100121A12
:100AB000D1400A00010030001B318840411E8841AE
:100AC00002431600052D12DC31000D4F394072072C
:100AD00009D00F203040042805D004314A0102D546
:100AE0009F2339405B1B89014E0AD8B2D6E76A1FA3
:100AF00096403100024F39407207F4D0E9E7C04612
:100B0000FFFFFFFB70B5051E0ED000F077F89E23A7
:100B100004001B1A962B0CDC082801DD083CA540BC
:100B20006D026D0AD8B201E000200025C0052843FF
:100B300070BD992B09DD020029001B3291404A1E2D
:100B400091410522121AD5400D43052C12DC2900D3
:100B50000C4E31406A0709D00F202840042805D0E8
:100B600004314A0102D59F2331401B1B89014D0AE4
:100B7000D8B2DBE7621F95402900024E31406A0778
:100B8000F4D0E9E7FFFFFFFB844608006146FFE77A
:100B90001FB500F0BDF8002801D40021C8421FBDD8
:100BA00010B500F049F84042013010BD10B500F01A
:100BB000AFF8002801DB002010BD012010BDC046A9
:100BC00010B500F0A5F8002801DD002010BD0120BF
:100BD00010BDC04610B500F055F8002801DC00201B
:100BE00010BD012010BDC04610B500F04BF8002824
:100BF00001DA002010BD012010BDC0461C210123D8
:100C00001B04984201D3000C10391B0A984201D3EF
:100C1000000A08391B09984201D30009043902A2CD
:100C2000105C40187047C046040302020101010134
:100C3000000000000000000070B5420045024E02B6
:100C40004C00C30F6D0A0120120E760A240EC90F44
:100C5000FF2A06D0FF2C03D0A24201D1B54206D014
:100C600070BD002DFCD1FF2CFAD1002EF8D18B42A3
:100C700006D00120002AF3D12800431E9841EFE757
:100C80000020EDE770B5420045024E024C00C30F54
:100C90006D0A120E760A240EC80FFF2A1BD0FF2CF5
:100CA0000ED0002A1BD1002C01D1002E1CD0002D0B
:100CB0000CD083421CD00221581E0840013870BD60
:100CC000002E22D1002AF4D1002DF2D10028F6D135
:100CD00001204042F3E7002D17D1FF2CF0D0002C6B
:100CE000E7D1002EE5D1E6E70020002DE7D0E2E7CE
:100CF000A24205DCEADBB54202D8E7D30020DEE7FA
:100D00004342584140000138D9E702204042D6E72B
:100D100070B5420045024E024C00C30F6D0A120E20
:100D2000760A240EC80FFF2A0BD0FF2C0DD0002A04
:100D30001FD1002C16D1002E14D10020002D10D070
:100D400009E0002D0CD1FF2C13D1002E08D1002A70
:100D500008D0834212D00221581E0840013800E01A
:100D6000022070BD002DF4D10028FAD101204042AC
:100D7000F7E7002CEDD1002EEBD1ECE7A24205DC29
:100D8000F2DBB54202D8EFD30020EAE743425841F4
:100D900040000138E5E7C04610B586B010220021BA
:100DA00002A801F071FA80230124DB0101A909489E
:100DB0000193039400F0DAFE074BA0200193002377
:100DC00001A9C00502930394049300F0CFFE06B07E
:100DD00010BDC046000800500111000030B587B0BA
:100DE0000822002104A801F04FFA802301250224E3
:100DF000DB0101A9094801930295039400F0B6FEB6
:100E0000074BA0200193002301A9C005029503947C
:100E1000049300F0ABFE07B030BDC04600080050A0
:100E200001110000F7B505000E00FFF7D7FF022300
:100E30006427019300246300F15AA300E8580022BC
:100E400000F04CFF0134380000F068FB042CF2D1B4
:100E500000246300F15AA300E858012200F03EFF8D
:100E60000134380000F05AFB042CF2D1019B012B15
:100E700002D001230193DDE7FA20800000F04EFB51
:100E8000F7BD000070B5060000241925300000F001
:100E90008BFC013D4440A4B2002DF7D1074B084A1A
:100EA00063439B189BB2180A4340DBB218095840B1
:100EB000830858400323184070BDC0460508000051
:100EC00019360000F8B50F0015001E00FFF7DAFF15
:100ED00004003870FFF782FF6300A400605900220D
:100EE000995B00F0FBFE322000F018FB0024630049
:100EF000F15AA3000122E858013400F0EFFE042C5F
:100F0000F5D1F8BDF8B507000C000025192638000A
:100F100000F04AFC013E4540ADB2002EF7D10D482D
:100F20000D4B6843C01880B2030A5840030958406B
:100F3000FFF7E8FD0949FFF78BF9051C2000FFF7D3
:100F400093FD011C281CFFF79BFAFFF769F980B29B
:100F5000F8BDC046050800001936000000FF7F47B5
:100F6000F8B5002405000E002700FFF715FF630009
:100F7000F15AA300E85800F0ABFE43424341A340BE
:100F800001341F43FFB2042CF1D13800F8BDF7B58E
:100F90000C001E000192FFF7FFFE30000899FFF7DA
:100FA000DFFF013C050007000120A4B200F0B6FA03
:100FB000002D03D1002CF0D12800FEBD251EFBD052
:100FC0000023012239001941114202D10133042BBF
:100FD000F8D1019A00259342EED130000899FFF72D
:100FE000BFFF0028F9D10125E6E7F7B505000E009F
:100FF000FFF7F4FE0223FA27019300246300F15A5D
:10100000A3000022E858013400F068FE042CF5D15A
:10101000380000F083FA00246300F15AA300012293
:10102000E858013400F05AFE042CF5D1380000F0E5
:1010300075FA019B012B02D001230193DDE7F7BD77
:10104000F7B506000C001500FFF7C8FE642130005C
:10105000FFF75AF80027C3B20193019B9F4216D1B4
:101060000A213000FFF750F80A21C0B2FFF7D2F88A
:101070000027CBB20193019B9F421BD130000A2174
:10108000FFF7C8F80026CFB2BE4226D1F7BD012235
:10109000A988A06800F022FEC82000F03FFA0022D4
:1010A000A988A06800F01AFE0137C82000F036FABF
:1010B000FFB2D2E701226988606800F00FFEC82005
:1010C00000F02CFA00226988606800F007FE013702
:1010D000C82000F023FAFFB2CDE70122298820685A
:1010E00000F0FCFDC82000F019FA002229882068D1
:1010F00000F0F4FD0136C82000F010FAF6B2C3E7A4
:1011000000B58DB01822002106A801F0BDF800211D
:101110001422684601F0B8F802230593FE330893C1
:1011200080235B010993402305A80A9300F0DCFDAE
:10113000011E01D072B6FEE70723019002900390D2
:1011400004906846009300F03FFF002801D072B67B
:10115000FEE70DB000BD0000F0B591B000F0C0F9A1
:10116000FFF7CEFF642000F0D9F9FA20042701250B
:101170008024704E400100F0D1F9142200210BA808
:1011800001F082F8736BE4013B437363736B2100DE
:101190003B400693069B736B00222B437363736B78
:1011A00065482B400793079B00F098FDA020002284
:1011B0006249C00500F092FD0B9400245E480BA923
:1011C0000C950D950E9400F0D1FCA0205B4B0BA963
:1011D000C0050B930C950D950E9400F0C7FC0520EF
:1011E00000F0AEF90C22210008A801F04DF8736B55
:1011F00051482B437363736B0BA92B400593059BDD
:1012000080239B010B9303230D940C9300F0AEFC01
:101210004B4E4C4B300033608023DB057360330052
:101220002C331C70330034833C33B460F46034617D
:101230007761B576F5617462B46234637463B463E4
:101240001C70F46400F086F9A04201D072B6FEE78B
:101250003D4B09900A9008A93000089300F0A8FAC5
:10126000051E01D072B6FEE7300000F00DFC374CD1
:101270006B00374F195BAB000122D859013500F0E4
:101280002DFD042DF3D121003800FFF7CBFD314DAA
:101290002F4F290023003A003000FFF713FE2A7871
:1012A0002D4B2E4D188829883B000094FFF76FFEC8
:1012B0000390002821D0FA222B88520093420ED9A5
:1012C000323B2B80264A30001378264901331370B5
:1012D000FFF718FEF530FF3000F020F9D7E71A00CD
:1012E000AF21973A92B249008A4201D20A3BE8E71D
:1012F0009A1F902AE6D8053BE3E7FA20400000F069
:101300000DF921003800FFF770FEFA20400000F0D0
:1013100005F9134B220018783900FFF791FEFA20E7
:10132000400000F0FBF8FA239B00039A2B800C4B43
:101330001A70A8E7001002400008005001110000D8
:10134000480000200024014000200034000000205C
:1013500008000020AD0000204400002018000020FC
:10136000AC000020FC08000072B6FEE701200A4B2A
:1013700082B0196C0143196480211A6C490502403E
:101380000092009ADA6B0A43DA63DB6B0B4001933D
:10139000019B02B07047C0460010024010B5040027
:1013A0008EB01422002102A800F06EFF1C22002142
:1013B00007A800F069FF174B22689A4227D18023C3
:1013C00007A8DB01079300F0B1FE002801D0FFF76A
:1013D000CBFF8020104B4003196C0143196401219D
:1013E0001A6C02400092009A5A6BA0200A435A637A
:1013F0005B6BC0050B400193019B80239B01029313
:1014000003230393002302A9049300F0AFFB0EB063
:1014100010BDC0460024014000100240FEE7FEE778
:101420007047704710B500F067F810BD8022024B7E
:1014300012059A607047C04600ED00E00D488546F1
:10144000002103E00C4B5B58435004310B480C4B1C
:1014500042189A42F6D30B4A02E00023136004328A
:10146000094B9A42F9D3FFF7E1FF00F0E9FEFFF7DD
:1014700073FEFEE700180020B823000800000020DB
:101480002800002028000020B4000020FEE7000013
:10149000104B70B519680500002901D1012070BDFD
:1014A000FA208000FEF730FE0B4B01001868FEF7B3
:1014B0002BFE00F041FB041EF0D1032DEED80200FC
:1014C00001202900404200F00DFB044B20001D606C
:1014D000E5E7C046200000201C000020240000207A
:1014E00010B50320FFF7D4FF041E03D1FFF73EFF22
:1014F000200010BD0124FBE7034A04491368096872
:101500005B1813607047C046B00000202000002028
:10151000014B18687047C046B000002070B5040049
:10152000FFF7F6FF0500631C02D0044B1B68E418AC
:10153000FFF7EEFF401BA042FAD370BD2000002051
:10154000014BD8637047C0460000014080684007E7
:10155000C00F70470023F0B585B004000125039348
:10156000984200D1B9E0856D9D4205D1FFF716FF85
:1015700023005433E5651D70802326685B05B2683F
:101580001A4200D1ACE0B3680025DB0007D4102379
:101590000125A26D1343A365E36D2B43E365300082
:1015A000FFF7D4FF1023A26D1A401043009000D023
:1015B000E5E0A36D744A1A4002231343A365236830
:1015C0009A68D20767D4A17E277E8C464903667E3F
:1015D0000191216BA268BF03F603002901D080218D
:1015E0004901E06802433A430198276932430243C4
:1015F000002F00DB88E07F007F0826002C3636783D
:1016000076001643621CD27F31433943012A06D14A
:101610006046002800D07AE0802252021143626ABC
:10162000002A05D0E026A06A76003240024311432A
:10163000DE68564A16403143D9606168E26C8F0F0C
:10164000BF073A43944622003C321678012E09D156
:10165000606C226C024360460243A06C02433A4332
:101660001643B4461A694A4E604632408026024309
:101670001A614A005208F605B2420CD080221206C6
:10168000914208D0434E444F32683A40F027BF039E
:10169000394011433160072670275A69616BB243A4
:1016A0000A435A615E69A26BBE43120132435A611A
:1016B0002269002A33D1986A103A02439A620722BB
:1016C0005B69134099424ED10023E365A36D043A50
:1016D00093431A0001231343A365280005B0F0BD0E
:1016E000B2682E490A401343B3602D4B2D49186848
:1016F000FEF70AFD40000390039B002B00D142E758
:10170000039B013B0393F7E78027BF0375E7202680
:10171000A76D3E43A665E66D3243E2657FE780260E
:10172000B603B242CBD10F27266E3000009A92004A
:10173000D04002003A400F2A0FD0009A01320092A6
:10174000082AF2D11C209A6AE269013A920002400A
:101750002C38904002003243B0E7009A012AF1D1C0
:10176000986A113AA9E71222A36D012593431A0042
:1017700010231343A365E36D2B43E365ADE7A26D2F
:1017800001251343A365A8E7FDFEFFFF0102FEFF4D
:1017900002FCFF1F08270140FFFFC3FFE8FFFF6FA8
:1017A0001C000020400D03000368186C7047000007
:1017B0000023F0B587B00593030054331A78040072
:1017C0000E000220012A00D1CFE001251D70206803
:1017D000FFF7BCFE002800D0ECE004222769736804
:1017E00097438022019312069446019A3368022A95
:1017F00000D1BCE05902490A2268029167450FD125
:10180000906A01439162B168556918026C4E0140BB
:101810003140854329435161002B70DB0020A1E05A
:101820001F21019F0F40BC460F2761468F40F9439F
:101830000391216EB9430F000299002914D1980E2B
:101840001F31084061468840019907438908E069D3
:10185000013127668142D6D865469900090FA94013
:10186000906A039D2840CCE72B42EBD1022128004F
:101870000B42E7D1080049180B42E3D101301907A8
:10188000E0D40130D906DDD401309906DAD4013034
:101890005906D7D401301906D4D40130D905D1D492
:1018A00001309905CED401305905CBD4013019054A
:1018B000C8D40130D904C5D401309904C2D4013050
:1018C0005904BFD401301904BCD40130D903B9D4B0
:1018D00001309903B6D401305903B3D40130190350
:1018E000B0D40130D902ADD401309902AAD48021FC
:1018F0001800C90308400B42A4D01620A2E7C02557
:10190000304A314916682D0435408B4219D1802068
:101910000004064282D113682C490B402B43034339
:1019200013602B4B2B491868FEF7EEFB0C23434347
:1019300001330593059B002B00D16FE7059B013B0D
:10194000F7E725498B4200D068E780233000DB03AE
:1019500018401E4200D061E711681C4E31402943F7
:101960000B43136000235434237007B0F0BD674568
:1019700005D120685902826A490A8A438262002B93
:1019800000DB4BE70F4910480A68834208D18023E7
:10199000DB031A4008680D4B03401A430A603DE719
:1019A0000D48834200D039E78020000402400B68D4
:1019B0000648F1E72023A26D28001343A365D1E771
:1019C00000FFFF7F08270140000200A4FFFF3FFF48
:1019D0001C000020400D0300000400A80023F7B500
:1019E00004000193036801209A68024201D000209C
:1019F000FEBD99681F4A114207D01023A26D134300
:101A0000A365E36D0343E365F2E79A681A4D2A4044
:101A100010439860194B1B681B021DD4637E012B79
:101A2000E5D0FFF775FD01260700226813683342F1
:101A3000DDD19368334203D193682B4033439360E5
:101A4000FFF766FDC01B0228EFD91023A26D01200D
:101A50001343A365E36DD5E7094B0A491868FEF700
:101A600053FB01300190019B002BD7D0019B013B20
:101A70000193F8E717000080E8FFFF7F0827014087
:101A80001C000020400D030070B504000068FFF743
:101A90005DFD06000220002E1DD1250054352B7857
:101AA000012B18D0012320002B70FFF797FF00288F
:101AB00012D1A36D094A0A491A4080235B001343DF
:101AC0001C22A3652368E0651A6028709A6811409B
:101AD00004220A439A6070BD2E70FCE7FEF0FFFFFF
:101AE000E8FFFF7F30B5FF2503242A000440E4000F
:101AF000A24089012940D243A140C3B200280ADB99
:101B0000C0240B4B80088000C018A40003591A4061
:101B10001143015130BD0F200340083B05489B088D
:101B20009B001B18D86902401143D961F2E7C046F7
:101B300000E100E000ED00E08022431E520401209D
:101B400093420DD2C021074A07485360036A090631
:101B50001B021B0A0B4303620020072390601360E3
:101B60007047C04610E000E000ED00E00023F0B553
:101B700085B00A681400DC4001D105B0F0BD012435
:101B80009C40029414400194029C224200D190E0B7
:101B90004A681500944610229543022D11D10F2753
:101BA000DA08072492008218166A03923A001C4051
:101BB000A400A24096430A691740A740039A3743FE
:101BC000176203225C00A2400668D743964303963F
:101BD000624603263240A240039E013D324302602A
:101BE000012D0FD8CA688568A2403D402A43826013
:101BF0004568029A012695436246120932409A408E
:101C00002A4342606246032A53D0C2683A408F6832
:101C1000A74080243A43C26062466405224248D00D
:101C2000254A03259C08A400A4180F221D40ED009E
:101C3000AA40A027266EFF0596430022B8420CD08A
:101C40001E4F0132B84208D01D4F0132B84204D0B5
:101C50001C4F0132B84200D00232AA4067463243DC
:101C60002266194A019CD66F019DE4433543FF0368
:101C700001D4350025406746D567144D019EEA6FB3
:101C80001643BF0301D42240160067460A4AEE6796
:101C90001668019D3543FF0201D435002540674693
:101CA00015605568019E2E43BF0201D425402E00C9
:101CB000566001335DE7C046001802400004005042
:101CC0000008005000140050041802400818024098
:101CD00000690840431E9841C0B27047002A01D0F5
:101CE000816170478162FCE7F8B5041E01D10120D3
:101CF000F8BD0368DB070DD423689B0753D4236822
:101D00001B0700D5ADE0042123680B4200D0DDE0C5
:101D10000020EDE738228F4DAB681340082B06D129
:101D20002B689B03E8D54368002BE5D1DFE78022D1
:101D300043685202934211D12A6813432B60FFF784
:101D4000E7FB80270600BF022B683B42D4D1FFF798
:101D5000DFFB801B6428F7D90320C9E7A021C90253
:101D60008B4208D180232968DB020B432B602B6850
:101D70001A432A60E3E72A6877490A402A602A68FA
:101D800076490A402A60002BD9D1FFF7C1FB802792
:101D90000600BF022B683B42AED0FFF7B9FB801BA9
:101DA0006428F7D9D8E738236A4DAA681A4221D1A6
:101DB0002B685B0502D5E368002B98D06A686369DD
:101DC00067491B020A4013436B602B68654A134046
:101DD000226913432B602B68634A9B045B0FDA4034
:101DE0001300624A1360624B1868FFF751FB00282A
:101DF00085D07CE7E368002B20D02B68594A8027E8
:101E000013402269FF0013432B6080232A685B0084
:101E100013432B60FFF77CFB06002B683B4207D087
:101E20006A6863694E491B020A4013436B6066E7A8
:101E3000FFF76EFB801B0228EFD98DE72B684D4A18
:101E4000802713402B60FFF763FB0600FF002B6821
:101E50003B4200D153E7FFF75BFB801B0228F6D91A
:101E60007AE738223B4DAB681340182B08D12B6E14
:101E70009B0700D447E7A369002B00D043E736E770
:101E8000A2690123002A10D02A6E022713432B6671
:101E9000FFF73EFB06002B6E3B4200D033E7FFF717
:101EA00037FB801B0228F6D956E72A6E02279A4391
:101EB0002A66FFF72DFB06002B6E3B4200D122E77E
:101EC000FFF726FB801B0228F6D945E73822214D73
:101ED000AB681340202B08D1EB6D9B0700D417E7AC
:101EE000A06843425841C0B202E7A368012B11D158
:101EF000EA6D1343EB65FFF70BFB02260400EB6D65
:101F0000334200D004E7FFF703FB1B4B001B984252
:101F1000F5D921E7052B05D1EB6D1943E9650123BF
:101F2000EA6DE6E70120EA6D8243EA65EA6D8A43DD
:101F3000EA65002BDFD1FFF7EBFA02260400EB6D18
:101F4000334200D1E4E6FFF7E3FA0B4B001B984263
:101F5000F5D901E700100240FFFFFEFFFFFFFBFF86
:101F6000FF80FFFFFFC7FFFF006CDC021C000020AA
:101F700024000020FFFEFFFF8813000038220F4BD3
:101F80009968114205D11B680D489B045B0FD8402E
:101F900070479968114008290BD099681140202991
:101FA00009D09B6800201A40182AF1D1FA20C001FC
:101FB000EEE70448ECE780200002E9E70010024069
:101FC000006CDC0200127A00F7B504000D00002856
:101FD00001D10120FEBD07274B4E33683B408B42A9
:101FE0002AD321688B073BD4CB074AD40727336811
:101FF0003B40AB420AD93368BB432B433360FFF706
:1020000087FA019033683B40AB426DD123683F4D66
:102010005B0771D4FFF7B2FFAB683D4A1B051B0F8E
:102020009B009B581F221340D8403A4B18603A4BF4
:102030001868FFF72DFACDE73368BB430B433360D5
:10204000FFF766FA019033683B40AB42C9D0FFF717
:102050005FFA019BC01A314B9842F4D90320B9E7CB
:102060002A4A4B0706D593682D481840B0231B0118
:102070000343936093682B480340E06803439360F5
:10208000B2E71C22214F3B689343A26813433B6095
:102090006268012A19D13B689B039AD50721BB6866
:1020A0008B431343BB60FFF733FA01903823BA68C0
:1020B0001A406368DB009A4298D0FFF729FA019B27
:1020C000C01A164B9842F1D9C8E7002A03D13B68E1
:1020D0005B05E3D47DE70223032A03D1396E19425D
:1020E000DCD176E7F96DFAE7FFF712FA019BC01A27
:1020F0000A4B984286D9B1E7AB680B4A1340226974
:102100001343AB6086E7C046002002400010024047
:10211000702300081C000020240000208813000009
:10212000FF84FFFFFFF0FFFFFF8FFFFFF0B505000B
:102130002B68002085B09B0322D58022394C5205A4
:10214000E36B0600134207D1E36B01361343E363ED
:10215000E36B13400393039BE26DC02311009B00CC
:10216000314F19401A423BD10020E36D1F40AB694B
:102170001F43E765012E03D1E36B2C4A1340E36351
:102180002A68D30706D5032426494B6DA343AC68C0
:1021900023434B65530606D52249254C4B6D2340FE
:1021A000EC6823434B65530406D51E496C694B6D9F
:1021B0009B009B0823434B65130506D519491D4C0D
:1021C0004B6D23402C6923434B65002A06DAE0213E
:1021D000144A13688B4369680B43136005B0F0BD64
:1021E000AB699942C0D08023E26DE06D11005B02C3
:1021F0000343E365E36D104839400340E365E1655F
:10220000D307B1D5FFF784F901900222E36D1342A1
:10221000AAD1FFF77DF9019BC01A084B9842F4D967
:102220000320A7E700100240FFFCFFFFFFFFFFEFC6
:10223000FFCFFFFFFF3FFFFFFFFFFEFF8813000000
:1022400070B500260C4D0D4C641BA410A64209D19C
:10225000002600F021F80A4D0A4C641BA410A64287
:1022600005D170BDB300EB5898470136EEE7B300D7
:10227000EB5898470136F2E7B0230008B023000876
:10228000B0230008B423000803008218934200D151
:10229000704719700133F9E7F8B5C046F8BC08BCBF
:1022A0009E467047F8B5C046F8BC08BC9E467047CD
:1022B00024040008B00300080C030008C40200084E
:1022C0000C030008EC0300080C030008C40200081B
:1022D000B0030008B0030008EC030008C4020008C3
:1022E000CA020008CA020008CA020008FA0300086D
:1022F000B0030008B00300080C030008C002000887
:102300000C030008EC0300080C030008C0020008DE
:10231000B0030008B0030008EC030008C002000886
:10232000CA020008CA020008CA020008F603000830
:1023300024050008F4040008F4040008F20400086E
:10234000F8040008F804000840060008F204000839
:10235000F804000840060008F8040008F204000829
:10236000EC050008EC050008EC0500087C060008F8
:10237000000000000000000000000000000000005D
:10238000000000000000000000000000000000004D
:102390000100000002000000030000000400000033
:1023A000060000000700000008000000090000000F
:0423B000E900000838
:0423B400C10000085C
:1023B800004001000001001000080050000000501B
:1023C8000000005000000050E8030000006CDC0230
:0823D8000100000004000000F8
:040000050800143D9E
:00000001FF
